{
  "_format": "hh-sol-artifact-1",
  "contractName": "ProductList",
  "sourceName": "contracts/Product.sol",
  "abi": [
    {
      "inputs": [
        {
          "internalType": "string",
          "name": "_name",
          "type": "string"
        },
        {
          "internalType": "uint256",
          "name": "_price",
          "type": "uint256"
        }
      ],
      "name": "addProduct",
      "outputs": [],
      "stateMutability": "nonpayable",
      "type": "function"
    },
    {
      "inputs": [
        {
          "internalType": "uint256",
          "name": "_index",
          "type": "uint256"
        }
      ],
      "name": "deleteProduct",
      "outputs": [],
      "stateMutability": "nonpayable",
      "type": "function"
    },
    {
      "inputs": [
        {
          "internalType": "uint256",
          "name": "_index",
          "type": "uint256"
        },
        {
          "internalType": "string",
          "name": "_name",
          "type": "string"
        },
        {
          "internalType": "uint256",
          "name": "_price",
          "type": "uint256"
        }
      ],
      "name": "editProduct",
      "outputs": [],
      "stateMutability": "nonpayable",
      "type": "function"
    },
    {
      "inputs": [
        {
          "internalType": "uint256",
          "name": "_index",
          "type": "uint256"
        }
      ],
      "name": "getProduct",
      "outputs": [
        {
          "internalType": "uint256",
          "name": "",
          "type": "uint256"
        },
        {
          "internalType": "string",
          "name": "",
          "type": "string"
        },
        {
          "internalType": "uint256",
          "name": "",
          "type": "uint256"
        },
        {
          "internalType": "address",
          "name": "",
          "type": "address"
        }
      ],
      "stateMutability": "view",
      "type": "function"
    },
    {
      "inputs": [],
      "name": "listProducts",
      "outputs": [
        {
          "components": [
            {
              "internalType": "uint256",
              "name": "id",
              "type": "uint256"
            },
            {
              "internalType": "string",
              "name": "name",
              "type": "string"
            },
            {
              "internalType": "uint256",
              "name": "price",
              "type": "uint256"
            },
            {
              "internalType": "address",
              "name": "owner",
              "type": "address"
            }
          ],
          "internalType": "struct ProductList.Product[]",
          "name": "",
          "type": "tuple[]"
        }
      ],
      "stateMutability": "view",
      "type": "function"
    },
    {
      "inputs": [],
      "name": "productCount",
      "outputs": [
        {
          "internalType": "uint256",
          "name": "",
          "type": "uint256"
        }
      ],
      "stateMutability": "view",
      "type": "function"
    },
    {
      "inputs": [
        {
          "internalType": "uint256",
          "name": "",
          "type": "uint256"
        }
      ],
      "name": "products",
      "outputs": [
        {
          "internalType": "uint256",
          "name": "id",
          "type": "uint256"
        },
        {
          "internalType": "string",
          "name": "name",
          "type": "string"
        },
        {
          "internalType": "uint256",
          "name": "price",
          "type": "uint256"
        },
        {
          "internalType": "address",
          "name": "owner",
          "type": "address"
        }
      ],
      "stateMutability": "view",
      "type": "function"
    },
    {
      "inputs": [
        {
          "internalType": "string",
          "name": "_name",
          "type": "string"
        }
      ],
      "name": "searchProduct",
      "outputs": [
        {
          "internalType": "uint256",
          "name": "",
          "type": "uint256"
        },
        {
          "internalType": "uint256",
          "name": "",
          "type": "uint256"
        },
        {
          "internalType": "address",
          "name": "",
          "type": "address"
        }
      ],
      "stateMutability": "view",
      "type": "function"
    }
  ],
  "bytecode": "0x6080604052348015600f57600080fd5b506118e78061001f6000396000f3fe608060405234801561001057600080fd5b50600436106100885760003560e01c8063b15247d91161005b578063b15247d91461012c578063b9db15b414610148578063e0f6ef871461017b578063ed90c7b71461019957610088565b80637acc0b201461008d57806389bb9b00146100c0578063a575b6c5146100de578063ad6c14bb146100fa575b600080fd5b6100a760048036038101906100a29190610bca565b6101b5565b6040516100b79493929190610cd7565b60405180910390f35b6100c8610293565b6040516100d59190610eb0565b60405180910390f35b6100f860048036038101906100f39190611007565b61044e565b005b610114600480360381019061010f9190611076565b6104e0565b604051610123939291906110bf565b60405180910390f35b610146600480360381019061014191906110f6565b610632565b005b610162600480360381019061015d9190610bca565b610766565b6040516101729493929190610cd7565b60405180910390f35b6101836108f7565b6040516101909190611152565b60405180910390f35b6101b360048036038101906101ae9190610bca565b6108fd565b005b600081600a81106101c557600080fd5b600402016000915090508060000154908060010180546101e49061119c565b80601f01602080910402602001604051908101604052809291908181526020018280546102109061119c565b801561025d5780601f106102325761010080835404028352916020019161025d565b820191906000526020600020905b81548152906001019060200180831161024057829003601f168201915b5050505050908060020154908060030160009054906101000a900473ffffffffffffffffffffffffffffffffffffffff16905084565b6060600060285467ffffffffffffffff8111156102b3576102b2610edc565b5b6040519080825280602002602001820160405280156102ec57816020015b6102d9610ae5565b8152602001906001900390816102d15790505b50905060005b60285481101561044657600081600a81106103105761030f6111cd565b5b60040201604051806080016040529081600082015481526020016001820180546103399061119c565b80601f01602080910402602001604051908101604052809291908181526020018280546103659061119c565b80156103b25780601f10610387576101008083540402835291602001916103b2565b820191906000526020600020905b81548152906001019060200180831161039557829003601f168201915b50505050508152602001600282015481526020016003820160009054906101000a900473ffffffffffffffffffffffffffffffffffffffff1673ffffffffffffffffffffffffffffffffffffffff1673ffffffffffffffffffffffffffffffffffffffff168152505082828151811061042e5761042d6111cd565b5b602002602001018190525080806001019150506102f2565b508091505090565b6028548310610492576040517f08c379a000000000000000000000000000000000000000000000000000000000815260040161048990611248565b60405180910390fd5b81600084600a81106104a7576104a66111cd565b5b6004020160010190816104ba9190611414565b5080600084600a81106104d0576104cf6111cd565b5b6004020160020181905550505050565b600080600080600090505b6028548110156105ef57846040516020016105069190611522565b60405160208183030381529060405280519060200120600082600a81106105305761052f6111cd565b5b6004020160010160405160200161054791906115bc565b60405160208183030381529060405280519060200120036105e257600081600a8110610576576105756111cd565b5b6004020160000154600082600a8110610592576105916111cd565b5b6004020160020154600083600a81106105ae576105ad6111cd565b5b6004020160030160009054906101000a900473ffffffffffffffffffffffffffffffffffffffff169350935093505061062b565b80806001019150506104eb565b506040517f08c379a00000000000000000000000000000000000000000000000000000000081526004016106229061161f565b60405180910390fd5b9193909250565b600a60285410610677576040517f08c379a000000000000000000000000000000000000000000000000000000000815260040161066e9061168b565b60405180910390fd5b6040518060800160405280600160285461069191906116da565b81526020018381526020018281526020013373ffffffffffffffffffffffffffffffffffffffff168152506000602854600a81106106d2576106d16111cd565b5b600402016000820151816000015560208201518160010190816106f59190611414565b506040820151816002015560608201518160030160006101000a81548173ffffffffffffffffffffffffffffffffffffffff021916908373ffffffffffffffffffffffffffffffffffffffff1602179055509050506028600081548092919061075d9061170e565b91905055505050565b6000606060008060285485106107b1576040517f08c379a00000000000000000000000000000000000000000000000000000000081526004016107a890611248565b60405180910390fd5b60008086600a81106107c6576107c56111cd565b5b60040201604051806080016040529081600082015481526020016001820180546107ef9061119c565b80601f016020809104026020016040519081016040528092919081815260200182805461081b9061119c565b80156108685780601f1061083d57610100808354040283529160200191610868565b820191906000526020600020905b81548152906001019060200180831161084b57829003601f168201915b50505050508152602001600282015481526020016003820160009054906101000a900473ffffffffffffffffffffffffffffffffffffffff1673ffffffffffffffffffffffffffffffffffffffff1673ffffffffffffffffffffffffffffffffffffffff1681525050905080600001518160200151826040015183606001519450945094509450509193509193565b60285481565b6028548110610941576040517f08c379a000000000000000000000000000000000000000000000000000000000815260040161093890611248565b60405180910390fd5b60008190505b60016028546109569190611756565b811015610a5957600060018261096c91906116da565b600a811061097d5761097c6111cd565b5b60040201600082600a8110610995576109946111cd565b5b6004020160008201548160000155600182018160010190816109b791906117a0565b50600282015481600201556003820160009054906101000a900473ffffffffffffffffffffffffffffffffffffffff168160030160006101000a81548173ffffffffffffffffffffffffffffffffffffffff021916908373ffffffffffffffffffffffffffffffffffffffff16021790555090505080600082600a8110610a4157610a406111cd565b5b60040201600001819055508080600101915050610947565b5060006001602854610a6b9190611756565b600a8110610a7c57610a7b6111cd565b5b60040201600080820160009055600182016000610a999190610b23565b60028201600090556003820160006101000a81549073ffffffffffffffffffffffffffffffffffffffff0219169055505060286000815480929190610add90611888565b919050555050565b6040518060800160405280600081526020016060815260200160008152602001600073ffffffffffffffffffffffffffffffffffffffff1681525090565b508054610b2f9061119c565b6000825580601f10610b415750610b60565b601f016020900490600052602060002090810190610b5f9190610b63565b5b50565b5b80821115610b7c576000816000905550600101610b64565b5090565b6000604051905090565b600080fd5b600080fd5b6000819050919050565b610ba781610b94565b8114610bb257600080fd5b50565b600081359050610bc481610b9e565b92915050565b600060208284031215610be057610bdf610b8a565b5b6000610bee84828501610bb5565b91505092915050565b610c0081610b94565b82525050565b600081519050919050565b600082825260208201905092915050565b60005b83811015610c40578082015181840152602081019050610c25565b60008484015250505050565b6000601f19601f8301169050919050565b6000610c6882610c06565b610c728185610c11565b9350610c82818560208601610c22565b610c8b81610c4c565b840191505092915050565b600073ffffffffffffffffffffffffffffffffffffffff82169050919050565b6000610cc182610c96565b9050919050565b610cd181610cb6565b82525050565b6000608082019050610cec6000830187610bf7565b8181036020830152610cfe8186610c5d565b9050610d0d6040830185610bf7565b610d1a6060830184610cc8565b95945050505050565b600081519050919050565b600082825260208201905092915050565b6000819050602082019050919050565b610d5881610b94565b82525050565b600082825260208201905092915050565b6000610d7a82610c06565b610d848185610d5e565b9350610d94818560208601610c22565b610d9d81610c4c565b840191505092915050565b610db181610cb6565b82525050565b6000608083016000830151610dcf6000860182610d4f565b5060208301518482036020860152610de78282610d6f565b9150506040830151610dfc6040860182610d4f565b506060830151610e0f6060860182610da8565b508091505092915050565b6000610e268383610db7565b905092915050565b6000602082019050919050565b6000610e4682610d23565b610e508185610d2e565b935083602082028501610e6285610d3f565b8060005b85811015610e9e5784840389528151610e7f8582610e1a565b9450610e8a83610e2e565b925060208a01995050600181019050610e66565b50829750879550505050505092915050565b60006020820190508181036000830152610eca8184610e3b565b905092915050565b600080fd5b600080fd5b7f4e487b7100000000000000000000000000000000000000000000000000000000600052604160045260246000fd5b610f1482610c4c565b810181811067ffffffffffffffff82111715610f3357610f32610edc565b5b80604052505050565b6000610f46610b80565b9050610f528282610f0b565b919050565b600067ffffffffffffffff821115610f7257610f71610edc565b5b610f7b82610c4c565b9050602081019050919050565b82818337600083830152505050565b6000610faa610fa584610f57565b610f3c565b905082815260208101848484011115610fc657610fc5610ed7565b5b610fd1848285610f88565b509392505050565b600082601f830112610fee57610fed610ed2565b5b8135610ffe848260208601610f97565b91505092915050565b6000806000606084860312156110205761101f610b8a565b5b600061102e86828701610bb5565b935050602084013567ffffffffffffffff81111561104f5761104e610b8f565b5b61105b86828701610fd9565b925050604061106c86828701610bb5565b9150509250925092565b60006020828403121561108c5761108b610b8a565b5b600082013567ffffffffffffffff8111156110aa576110a9610b8f565b5b6110b684828501610fd9565b91505092915050565b60006060820190506110d46000830186610bf7565b6110e16020830185610bf7565b6110ee6040830184610cc8565b949350505050565b6000806040838503121561110d5761110c610b8a565b5b600083013567ffffffffffffffff81111561112b5761112a610b8f565b5b61113785828601610fd9565b925050602061114885828601610bb5565b9150509250929050565b60006020820190506111676000830184610bf7565b92915050565b7f4e487b7100000000000000000000000000000000000000000000000000000000600052602260045260246000fd5b600060028204905060018216806111b457607f821691505b6020821081036111c7576111c661116d565b5b50919050565b7f4e487b7100000000000000000000000000000000000000000000000000000000600052603260045260246000fd5b7f496e76616c69642070726f6475637420696e6465780000000000000000000000600082015250565b6000611232601583610c11565b915061123d826111fc565b602082019050919050565b6000602082019050818103600083015261126181611225565b9050919050565b60008190508160005260206000209050919050565b60006020601f8301049050919050565b600082821b905092915050565b6000600883026112ca7fffffffffffffffffffffffffffffffffffffffffffffffffffffffffffffffff8261128d565b6112d4868361128d565b95508019841693508086168417925050509392505050565b6000819050919050565b600061131161130c61130784610b94565b6112ec565b610b94565b9050919050565b6000819050919050565b61132b836112f6565b61133f61133782611318565b84845461129a565b825550505050565b600090565b611354611347565b61135f818484611322565b505050565b5b818110156113835761137860008261134c565b600181019050611365565b5050565b601f8211156113c85761139981611268565b6113a28461127d565b810160208510156113b1578190505b6113c56113bd8561127d565b830182611364565b50505b505050565b600082821c905092915050565b60006113eb600019846008026113cd565b1980831691505092915050565b600061140483836113da565b9150826002028217905092915050565b61141d82610c06565b67ffffffffffffffff81111561143657611435610edc565b5b611440825461119c565b61144b828285611387565b600060209050601f83116001811461147e576000841561146c578287015190505b61147685826113f8565b8655506114de565b601f19841661148c86611268565b60005b828110156114b45784890151825560018201915060208501945060208101905061148f565b868310156114d157848901516114cd601f8916826113da565b8355505b6001600288020188555050505b505050505050565b600081905092915050565b60006114fc82610c06565b61150681856114e6565b9350611516818560208601610c22565b80840191505092915050565b600061152e82846114f1565b915081905092915050565b600081546115468161119c565b61155081866114e6565b9450600182166000811461156b5760018114611580576115b3565b60ff19831686528115158202860193506115b3565b61158985611268565b60005b838110156115ab5781548189015260018201915060208101905061158c565b838801955050505b50505092915050565b60006115c88284611539565b915081905092915050565b7f50726f64756374206e6f7420666f756e64000000000000000000000000000000600082015250565b6000611609601183610c11565b9150611614826115d3565b602082019050919050565b60006020820190508181036000830152611638816115fc565b9050919050565b7f50726f64756374206c6973742069732066756c6c000000000000000000000000600082015250565b6000611675601483610c11565b91506116808261163f565b602082019050919050565b600060208201905081810360008301526116a481611668565b9050919050565b7f4e487b7100000000000000000000000000000000000000000000000000000000600052601160045260246000fd5b60006116e582610b94565b91506116f083610b94565b9250828201905080821115611708576117076116ab565b5b92915050565b600061171982610b94565b91507fffffffffffffffffffffffffffffffffffffffffffffffffffffffffffffffff820361174b5761174a6116ab565b5b600182019050919050565b600061176182610b94565b915061176c83610b94565b9250828203905081811115611784576117836116ab565b5b92915050565b6000815490506117998161119c565b9050919050565b8181036117ae575050611886565b6117b78261178a565b67ffffffffffffffff8111156117d0576117cf610edc565b5b6117da825461119c565b6117e5828285611387565b6000601f8311600181146118145760008415611802578287015490505b61180c85826113f8565b86555061187f565b601f19841661182287611268565b965061182d86611268565b60005b8281101561185557848901548255600182019150600185019450602081019050611830565b86831015611872578489015461186e601f8916826113da565b8355505b6001600288020188555050505b5050505050505b565b600061189382610b94565b9150600082036118a6576118a56116ab565b5b60018203905091905056fea2646970667358221220c80607862abf0d65ef011ce24661a1eb535ab724e65b481b23b11901ce259bcc64736f6c634300081c0033",
  "linkReferences": {},
  "deployedLinkReferences": {}
}