{
  "_format": "hh-sol-artifact-1",
  "contractName": "ProductList",
  "sourceName": "contracts/Product.sol",
  "abi": [
    {
      "inputs": [
        {
          "internalType": "string",
          "name": "_name",
          "type": "string"
        },
        {
          "internalType": "uint256",
          "name": "_price",
          "type": "uint256"
        }
      ],
      "name": "addProduct",
      "outputs": [],
      "stateMutability": "nonpayable",
      "type": "function"
    },
    {
      "inputs": [
        {
          "internalType": "uint256",
          "name": "_index",
          "type": "uint256"
        }
      ],
      "name": "deleteProduct",
      "outputs": [],
      "stateMutability": "nonpayable",
      "type": "function"
    },
    {
      "inputs": [
        {
          "internalType": "uint256",
          "name": "_index",
          "type": "uint256"
        },
        {
          "internalType": "string",
          "name": "_name",
          "type": "string"
        },
        {
          "internalType": "uint256",
          "name": "_price",
          "type": "uint256"
        }
      ],
      "name": "editProduct",
      "outputs": [],
      "stateMutability": "nonpayable",
      "type": "function"
    },
    {
      "inputs": [
        {
          "internalType": "uint256",
          "name": "_index",
          "type": "uint256"
        }
      ],
      "name": "getProduct",
      "outputs": [
        {
          "internalType": "uint256",
          "name": "",
          "type": "uint256"
        },
        {
          "internalType": "string",
          "name": "",
          "type": "string"
        },
        {
          "internalType": "uint256",
          "name": "",
          "type": "uint256"
        }
      ],
      "stateMutability": "view",
      "type": "function"
    },
    {
      "inputs": [],
      "name": "listProducts",
      "outputs": [
        {
          "components": [
            {
              "internalType": "uint256",
              "name": "id",
              "type": "uint256"
            },
            {
              "internalType": "string",
              "name": "name",
              "type": "string"
            },
            {
              "internalType": "uint256",
              "name": "price",
              "type": "uint256"
            }
          ],
          "internalType": "struct ProductList.Product[]",
          "name": "",
          "type": "tuple[]"
        }
      ],
      "stateMutability": "view",
      "type": "function"
    },
    {
      "inputs": [],
      "name": "productCount",
      "outputs": [
        {
          "internalType": "uint256",
          "name": "",
          "type": "uint256"
        }
      ],
      "stateMutability": "view",
      "type": "function"
    },
    {
      "inputs": [
        {
          "internalType": "uint256",
          "name": "",
          "type": "uint256"
        }
      ],
      "name": "products",
      "outputs": [
        {
          "internalType": "uint256",
          "name": "id",
          "type": "uint256"
        },
        {
          "internalType": "string",
          "name": "name",
          "type": "string"
        },
        {
          "internalType": "uint256",
          "name": "price",
          "type": "uint256"
        }
      ],
      "stateMutability": "view",
      "type": "function"
    },
    {
      "inputs": [
        {
          "internalType": "string",
          "name": "_name",
          "type": "string"
        }
      ],
      "name": "searchProduct",
      "outputs": [
        {
          "internalType": "uint256",
          "name": "",
          "type": "uint256"
        },
        {
          "internalType": "uint256",
          "name": "",
          "type": "uint256"
        }
      ],
      "stateMutability": "view",
      "type": "function"
    }
  ],
  "bytecode": "0x6080604052348015600f57600080fd5b506115f18061001f6000396000f3fe608060405234801561001057600080fd5b50600436106100885760003560e01c8063b15247d91161005b578063b15247d91461012a578063b9db15b414610146578063e0f6ef8714610178578063ed90c7b71461019657610088565b80637acc0b201461008d57806389bb9b00146100bf578063a575b6c5146100dd578063ad6c14bb146100f9575b600080fd5b6100a760048036038101906100a29190610953565b6101b2565b6040516100b693929190610a1f565b60405180910390f35b6100c761026a565b6040516100d49190610bc8565b60405180910390f35b6100f760048036038101906100f29190610d1f565b6103cf565b005b610113600480360381019061010e9190610d8e565b610461565b604051610121929190610dd7565b60405180910390f35b610144600480360381019061013f9190610e00565b61056e565b005b610160600480360381019061015b9190610953565b61063f565b60405161016f93929190610a1f565b60405180910390f35b610180610772565b60405161018d9190610e5c565b60405180910390f35b6101b060048036038101906101ab9190610953565b610778565b005b600081600a81106101c257600080fd5b600302016000915090508060000154908060010180546101e190610ea6565b80601f016020809104026020016040519081016040528092919081815260200182805461020d90610ea6565b801561025a5780601f1061022f5761010080835404028352916020019161025a565b820191906000526020600020905b81548152906001019060200180831161023d57829003601f168201915b5050505050908060020154905083565b60606000601e5467ffffffffffffffff81111561028a57610289610bf4565b5b6040519080825280602002602001820160405280156102c357816020015b6102b06108e8565b8152602001906001900390816102a85790505b50905060005b601e548110156103c757600081600a81106102e7576102e6610ed7565b5b600302016040518060600160405290816000820154815260200160018201805461031090610ea6565b80601f016020809104026020016040519081016040528092919081815260200182805461033c90610ea6565b80156103895780601f1061035e57610100808354040283529160200191610389565b820191906000526020600020905b81548152906001019060200180831161036c57829003601f168201915b505050505081526020016002820154815250508282815181106103af576103ae610ed7565b5b602002602001018190525080806001019150506102c9565b508091505090565b601e548310610413576040517f08c379a000000000000000000000000000000000000000000000000000000000815260040161040a90610f52565b60405180910390fd5b81600084600a811061042857610427610ed7565b5b60030201600101908161043b919061111e565b5080600084600a811061045157610450610ed7565b5b6003020160020181905550505050565b60008060005b601e5481101561052d5783604051602001610482919061122c565b60405160208183030381529060405280519060200120600082600a81106104ac576104ab610ed7565b5b600302016001016040516020016104c391906112c6565b604051602081830303815290604052805190602001200361052057600081600a81106104f2576104f1610ed7565b5b6003020160000154600082600a811061050e5761050d610ed7565b5b60030201600201549250925050610569565b8080600101915050610467565b506040517f08c379a000000000000000000000000000000000000000000000000000000000815260040161056090611329565b60405180910390fd5b915091565b600a601e54106105b3576040517f08c379a00000000000000000000000000000000000000000000000000000000081526004016105aa90611395565b60405180910390fd5b60405180606001604052806001601e546105cd91906113e4565b8152602001838152602001828152506000601e54600a81106105f2576105f1610ed7565b5b60030201600082015181600001556020820151816001019081610615919061111e565b5060408201518160020155905050601e600081548092919061063690611418565b91905055505050565b600060606000601e548410610689576040517f08c379a000000000000000000000000000000000000000000000000000000000815260040161068090610f52565b60405180910390fd5b60008085600a811061069e5761069d610ed7565b5b60030201604051806060016040529081600082015481526020016001820180546106c790610ea6565b80601f01602080910402602001604051908101604052809291908181526020018280546106f390610ea6565b80156107405780601f1061071557610100808354040283529160200191610740565b820191906000526020600020905b81548152906001019060200180831161072357829003601f168201915b505050505081526020016002820154815250509050806000015181602001518260400151935093509350509193909250565b601e5481565b601e5481106107bc576040517f08c379a00000000000000000000000000000000000000000000000000000000081526004016107b390610f52565b60405180910390fd5b60008190505b6001601e546107d19190611460565b81101561084d5760006001826107e791906113e4565b600a81106107f8576107f7610ed7565b5b60030201600082600a81106108105761080f610ed7565b5b60030201600082015481600001556001820181600101908161083291906114aa565b506002820154816002015590505080806001019150506107c2565b50604051806060016040528060008152602001604051806020016040528060008152508152602001600081525060006001601e5461088b9190611460565b600a811061089c5761089b610ed7565b5b600302016000820151816000015560208201518160010190816108bf919061111e565b5060408201518160020155905050601e60008154809291906108e090611592565b919050555050565b60405180606001604052806000815260200160608152602001600081525090565b6000604051905090565b600080fd5b600080fd5b6000819050919050565b6109308161091d565b811461093b57600080fd5b50565b60008135905061094d81610927565b92915050565b60006020828403121561096957610968610913565b5b60006109778482850161093e565b91505092915050565b6109898161091d565b82525050565b600081519050919050565b600082825260208201905092915050565b60005b838110156109c95780820151818401526020810190506109ae565b60008484015250505050565b6000601f19601f8301169050919050565b60006109f18261098f565b6109fb818561099a565b9350610a0b8185602086016109ab565b610a14816109d5565b840191505092915050565b6000606082019050610a346000830186610980565b8181036020830152610a4681856109e6565b9050610a556040830184610980565b949350505050565b600081519050919050565b600082825260208201905092915050565b6000819050602082019050919050565b610a928161091d565b82525050565b600082825260208201905092915050565b6000610ab48261098f565b610abe8185610a98565b9350610ace8185602086016109ab565b610ad7816109d5565b840191505092915050565b6000606083016000830151610afa6000860182610a89565b5060208301518482036020860152610b128282610aa9565b9150506040830151610b276040860182610a89565b508091505092915050565b6000610b3e8383610ae2565b905092915050565b6000602082019050919050565b6000610b5e82610a5d565b610b688185610a68565b935083602082028501610b7a85610a79565b8060005b85811015610bb65784840389528151610b978582610b32565b9450610ba283610b46565b925060208a01995050600181019050610b7e565b50829750879550505050505092915050565b60006020820190508181036000830152610be28184610b53565b905092915050565b600080fd5b600080fd5b7f4e487b7100000000000000000000000000000000000000000000000000000000600052604160045260246000fd5b610c2c826109d5565b810181811067ffffffffffffffff82111715610c4b57610c4a610bf4565b5b80604052505050565b6000610c5e610909565b9050610c6a8282610c23565b919050565b600067ffffffffffffffff821115610c8a57610c89610bf4565b5b610c93826109d5565b9050602081019050919050565b82818337600083830152505050565b6000610cc2610cbd84610c6f565b610c54565b905082815260208101848484011115610cde57610cdd610bef565b5b610ce9848285610ca0565b509392505050565b600082601f830112610d0657610d05610bea565b5b8135610d16848260208601610caf565b91505092915050565b600080600060608486031215610d3857610d37610913565b5b6000610d468682870161093e565b935050602084013567ffffffffffffffff811115610d6757610d66610918565b5b610d7386828701610cf1565b9250506040610d848682870161093e565b9150509250925092565b600060208284031215610da457610da3610913565b5b600082013567ffffffffffffffff811115610dc257610dc1610918565b5b610dce84828501610cf1565b91505092915050565b6000604082019050610dec6000830185610980565b610df96020830184610980565b9392505050565b60008060408385031215610e1757610e16610913565b5b600083013567ffffffffffffffff811115610e3557610e34610918565b5b610e4185828601610cf1565b9250506020610e528582860161093e565b9150509250929050565b6000602082019050610e716000830184610980565b92915050565b7f4e487b7100000000000000000000000000000000000000000000000000000000600052602260045260246000fd5b60006002820490506001821680610ebe57607f821691505b602082108103610ed157610ed0610e77565b5b50919050565b7f4e487b7100000000000000000000000000000000000000000000000000000000600052603260045260246000fd5b7f496e76616c69642070726f6475637420696e6465780000000000000000000000600082015250565b6000610f3c60158361099a565b9150610f4782610f06565b602082019050919050565b60006020820190508181036000830152610f6b81610f2f565b9050919050565b60008190508160005260206000209050919050565b60006020601f8301049050919050565b600082821b905092915050565b600060088302610fd47fffffffffffffffffffffffffffffffffffffffffffffffffffffffffffffffff82610f97565b610fde8683610f97565b95508019841693508086168417925050509392505050565b6000819050919050565b600061101b6110166110118461091d565b610ff6565b61091d565b9050919050565b6000819050919050565b61103583611000565b61104961104182611022565b848454610fa4565b825550505050565b600090565b61105e611051565b61106981848461102c565b505050565b5b8181101561108d57611082600082611056565b60018101905061106f565b5050565b601f8211156110d2576110a381610f72565b6110ac84610f87565b810160208510156110bb578190505b6110cf6110c785610f87565b83018261106e565b50505b505050565b600082821c905092915050565b60006110f5600019846008026110d7565b1980831691505092915050565b600061110e83836110e4565b9150826002028217905092915050565b6111278261098f565b67ffffffffffffffff8111156111405761113f610bf4565b5b61114a8254610ea6565b611155828285611091565b600060209050601f8311600181146111885760008415611176578287015190505b6111808582611102565b8655506111e8565b601f19841661119686610f72565b60005b828110156111be57848901518255600182019150602085019450602081019050611199565b868310156111db57848901516111d7601f8916826110e4565b8355505b6001600288020188555050505b505050505050565b600081905092915050565b60006112068261098f565b61121081856111f0565b93506112208185602086016109ab565b80840191505092915050565b600061123882846111fb565b915081905092915050565b6000815461125081610ea6565b61125a81866111f0565b94506001821660008114611275576001811461128a576112bd565b60ff19831686528115158202860193506112bd565b61129385610f72565b60005b838110156112b557815481890152600182019150602081019050611296565b838801955050505b50505092915050565b60006112d28284611243565b915081905092915050565b7f50726f64756374206e6f7420666f756e64000000000000000000000000000000600082015250565b600061131360118361099a565b915061131e826112dd565b602082019050919050565b6000602082019050818103600083015261134281611306565b9050919050565b7f50726f64756374206c6973742069732066756c6c000000000000000000000000600082015250565b600061137f60148361099a565b915061138a82611349565b602082019050919050565b600060208201905081810360008301526113ae81611372565b9050919050565b7f4e487b7100000000000000000000000000000000000000000000000000000000600052601160045260246000fd5b60006113ef8261091d565b91506113fa8361091d565b9250828201905080821115611412576114116113b5565b5b92915050565b60006114238261091d565b91507fffffffffffffffffffffffffffffffffffffffffffffffffffffffffffffffff8203611455576114546113b5565b5b600182019050919050565b600061146b8261091d565b91506114768361091d565b925082820390508181111561148e5761148d6113b5565b5b92915050565b6000815490506114a381610ea6565b9050919050565b8181036114b8575050611590565b6114c182611494565b67ffffffffffffffff8111156114da576114d9610bf4565b5b6114e48254610ea6565b6114ef828285611091565b6000601f83116001811461151e576000841561150c578287015490505b6115168582611102565b865550611589565b601f19841661152c87610f72565b965061153786610f72565b60005b8281101561155f5784890154825560018201915060018501945060208101905061153a565b8683101561157c5784890154611578601f8916826110e4565b8355505b6001600288020188555050505b5050505050505b565b600061159d8261091d565b9150600082036115b0576115af6113b5565b5b60018203905091905056fea264697066735822122049237fca9321c1006d651959e2c299627bca3ec0a2cedb6c06d0fdb4ca5fadca64736f6c634300081c0033",
  "linkReferences": {},
  "deployedLinkReferences": {}
}